:100000000C947A000C94A2000C94A2000C94A20010
:100010000C94A2000C94A2000C94A2000C94A200D8
:100020000C94A2000C94A2000C94A2000C94A200C8
:100030000C94A2000C94A2000C94A2000C94A200B8
:100040000C9402200C94A2000C94A2000C94A20028
:100050000C94A2000C94A2000C94A2000C94A20098
:100060000C94A2000C94A20056176E17E617D8182D
:10007000F81818192019CD18F91B671C391BCE1C4C
:10008000211D221BD31DD31DD31DD31DD31DD31D55
:10009000D31DD31D511D901B00000000230026001E
:1000A00029000404040404040404020202020202FB
:1000B000030303030303010204081020408001022C
:1000C00004081020010204081020000000080002AB
:1000D0000100000304070000000000000000000011
:1000E0000000240027002A0000000000250028004E
:1000F0002B00CE2A11241FBECFEFD8E0DEBFCDBF2C
:1001000025E0A8EAB1E001C01D92AE36B207E1F7E2
:1001100011E0A0E0B1E0ECEDFAE502C005900D922F
:10012000A83AB107D9F710E0CAE7D0E004C0219798
:10013000FE010E944A2BC937D107C9F70E945F25EB
:100140000C946C2D0C940000CF93DF931F92CDB7CD
:10015000DEB7DC01ED91FC910088F189E02D41E0F2
:1001600050E0BE016F5F7F4F099597FD03C0898105
:1001700090E002C08FEF9FEF0F90DF91CF91089535
:10018000FC01448555854115510551F0FB0124853D
:1001900035852115310521F081E04217530709F01B
:1001A00080E00895DC011C96ED91FC911D9730973D
:1001B00039F08181811106C0808182958170089516
:1001C00080E0089581E00895DC01ED91FC91008CC0
:1001D000F18DE02D099591E08927089580E3FB01D9
:1001E00080833296842F82958F7090E1899F401989
:1001F00011244A3014F4405D01C0495C4293482FF9
:100200008111F0CF0895DC01ED91FC91008CF18D0E
:10021000E02D0994EF92FF920F931F93CF93DF93FA
:10022000EC01E881F9810688F789E02D099588239A
:10023000B9F08C859D857C012FEFE21AF20A8C01C2
:100240000A5F1F4FC0E0D0E0F70181917F010E945B
:10025000EF22C80FD91FE016F106B1F7CE0102C098
:1002600080E090E0DF91CF911F910F91FF90EF9090
:100270000895CF93DF93EC01E881F9810688F7892F
:10028000E02D0995882339F08C859D850196DF91B5
:10029000CF910C949C12DF91CF9108950F931F93EF
:1002A000CF93DF931F92CDB7DEB78C01DC01ED91C8
:1002B000FC910688F789E02D0995882391F0D801F3
:1002C0001C96ED91FC911D978181882351F041E0AE
:1002D00050E0BE016F5F7F4F0E94E224898190E071
:1002E00002C08FEF9FEF0F90DF91CF911F910F9181
:1002F00008956F927F928F929F92AF92BF92CF920A
:10030000DF92EF92FF920F931F93CF93DF937C01C5
:100310005B01EA01DC01ED91FC910688F789E02D93
:100320000995882309F46FC0D7011C96ED91FC91C3
:100330001D978181882309F469C06E010EE1BE0119
:100340006C197D096A0D7B1DD7011C96ED91FC91FE
:100350001D97A60181810E94E2244C01F70164846B
:100360007584D30111961C91812F0E94EF2288166B
:10037000990681F5C818D908C30101960E94B012E8
:10038000F701A485B5858C91282F30E02F70029F4E
:10039000F001039FF00D1124E054FC4F918D94FF68
:1003A00005C0982F907611F480688C93D7011C9625
:1003B000ED91FC911D97818181111FC0808186FF85
:1003C00005C010821D961C921E921C97CE018C199E
:1003D0009D091EC0B5E01B9FF0011124EC54FE4F97
:1003E00080819181880D991D918380838281938181
:1003F000881999099383828304C0C114D10409F038
:100400009ECFCE0105C08FEF9FEF02C080E090E04D
:10041000DF91CF911F910F91FF90EF90DF90CF90E0
:10042000BF90AF909F908F907F906F900895CF93E3
:10043000DF93EC010E94540FEC85FD85309739F075
:10044000808186FF06C081E09181911103C080E028
:1004500001C081E0DF91CF910895CF93DF93EC014C
:100460008C859D85009781F0FC012081222361F01D
:1004700001960E949C12EC85FD85908196FF02C03A
:10048000108202C0906290831D861C86DF91CF91FE
:100490000C94540FEF92FF920F931F93CF93DF931F
:1004A0008C017B01EA01DC01ED91FC910288F3896A
:1004B000E02D0995F701828190E0982F882723810C
:1004C000822B982789279827248130E0322F2227F2
:1004D0004581242B3227232732277C2F6D2F4091F3
:1004E000F1025091F2024F5F5F4F4115FDE75F0748
:1004F00010F040E050E1D42FC52FE0ECF3E0A0E095
:10050000A43059F0B18DBB2329F0E480F580EC16BE
:10051000FD0649F3AF5F7E96F3CF5093F20240930E
:10052000F1021092FB0240E0C0E0D0E0AEE14430C6
:10053000C1F0A49FF0011124E054FC4F518D5111E2
:1005400004C04093FB02EF010EC0573031F42097F6
:1005500029F0B28D5A8D5B1708F0FE014F5FEF0155
:10056000E6CF4093FB02209719F480E090E040C072
:1005700042E0498F409168034C87409169034D8761
:1005800040916A034E8740916B034F8740E052E0F1
:100590005B8B4A8B5D8B4C8B41E050E0598B488BD9
:1005A0001B8E4A8F43E0488F1E8A40E14F8B40915B
:1005B000F1025091F2025427452754275D834C8362
:1005C0007F836E83998388833B832A83898D8F7091
:1005D00061F20E94540F898D8F708330B9F78C8D32
:1005E0009D8DD8011D969C938E931C9781E090E081
:1005F000DF91CF911F910F91FF90EF900895CF92CF
:10060000DF92EF92FF920F931F93CF93DF93A0910E
:100610006D03B0916E035C96CD91DC915D97509126
:100620006C03209749F556FF61C0ECE7F3E080E0EA
:1006300090E0208121111AC061E1689F9001699FBB
:10064000300D1124E901C458DC4F806188832358A0
:100650003C4F80E1F90111928A95E9F7209709F45E
:1006600045C05D96DC93CE935C9706C0019671966B
:1006700084309105F1F63AC051FF07C080913804EB
:1006800090913904892B09F047C0888187FF0EC0FB
:100690008F77888380916C03826080936C03E091F4
:1006A0006D03F0916E03818D8F7E818F80916C033D
:1006B000982F9071D92E84FF72C0CE0106960E94A9
:1006C0009C128981882309F46DC0E0916D03F0913B
:1006D0006E03848195819F838E8388818064888363
:1006E000E0916D03F0916E03158E148EE12CF12CC8
:1006F000B70180913A0490913B040E94CA12F09293
:100700003904E0923804DF91CF911F910F91FF904F
:10071000EF90DF90CF9008958881807609F0B5CF73
:100720006E01FFEFCF1ADF0AF12CF60180818111F3
:1007300022C020913804309139042115310519F077
:10074000C9010E94C921F60180838823A1F000918C
:1007500038041091390420913A0430913B042C5311
:1007600034404091630360E070E00E942123F4E094
:10077000FF128BCF0CC0F3942FEFC21AD20A35E0D0
:10078000F312D3CF809164038E7F80936403E09152
:100790006D03F0916E03818D8061818F76CF87FF2D
:1007A00003C08BCF18829CCF80FF04C0CE01069679
:1007B0000E94B01280916C038C7009F443C0EE81EA
:1007C000EE2309F43FC08F8181110FC0EB84FC84BC
:1007D000E114F10409F48CCF25E0E29FF00111242B
:1007E000EC54FE4FF382E28207C08E2F0E94EF226C
:1007F0007C01892B09F47CCF80913A0490913B04D1
:100800008C53944080936203F701E80FF11DCF01F0
:10081000EF2B19F00E94C921D82ED0926503DD205C
:1008200009F466CF6091620370E0870120E030E058
:100830004E818D2D0E9421238091640382608093DC
:10084000640356CF888185FF51CF8E8181110BC003
:100850001882E0916D03F0916E03158E148E80E185
:1008600080936C0343CFE0916D03F0916E03818D13
:100870008061818F3BCF8F929F92AF92BF92CF9238
:10088000DF92EF92FF920F931F93CF938C015B0146
:100890007A016A014C0187E0880E911C0E94540F76
:1008A0000115110509F452C0F8018081807609F024
:1008B0004DC0F401C1E08191811102C0C15004C05A
:1008C000CF5FC530C1F7C4E0F801EC0FF11D8681A0
:1008D00081110DC080E092E00E94C921F801EC0F67
:1008E000F11D86838823D1F2F80114861386A701AF
:1008F0004C195D094A0D5B1DF801638574859601ED
:10090000EC0FF11D86810E946D22C81AD90AF801E8
:1009100023853485820F931F948783871C141D04BD
:100920002CF4C43009F4BACFCF5FD4CF0E94F61FA5
:10093000DC01CB010A96A11DB11DF80185879687C0
:10094000A787B08BC7018C199D0902C080E090E099
:10095000CF911F910F91FF90EF90DF90CF90BF90BC
:10096000AF909F908F900895FC01848595850C949D
:100970003B04CF93DF931F92CDB7DEB7698341E08D
:1009800050E0BE016F5F7F4FFC01848595850E941A
:100990003B040F90DF91CF9108952F923F924F9299
:1009A0005F926F927F928F929F92AF92BF92CF92FF
:1009B000DF92EF92FF920F931F93CF93DF93CDB708
:1009C000DEB765970FB6F894DEBF0FBECDBF7C01D2
:1009D0006B013A01FB01DB018D91882331F08E32EE
:1009E000D9F380538A30C0F334C020E030E080E097
:1009F00090E05AE041914423F9F0843091054CF5A0
:100A00004E3269F42F3F310509F01CF5D301A80FD0
:100A1000B91F12962C93019620E030E0EBCF529F45
:100A2000B001539F700D1124242F440F330B20531A
:100A30003109260F371FDECF2F3F310509F04CF467
:100A40008430910534F4F301E80FF91F228381E02B
:100A500021C0F70142815381648175818091120523
:100A600090911305A0911405B091150548175907E9
:100A70006A077B0709F4EBC10E94F61F8701085F34
:100A80001F4F6F7077277C5FC8010E945E0C81301A
:100A900019F080E090E0F2C188E991E09A838983BF
:100AA000F70182819381A481B5818B839C83AD837F
:100AB000BE8345E350E0BE016F5F7F4FC8010E94D7
:100AC000FF11892B19F420E030E0B8C10E94F61F15
:100AD000F7017783668342E050E0B7016A5F7F4F9A
:100AE000C8010E94460C81E090E09A83898342E02D
:100AF00050E0BE016F5F7F4FC8010E94460C80E04E
:100B000091E09A83898342E050E0BE016F5F7F4F9E
:100B1000C8010E94460C1A82198242E050E0BE01D0
:100B20006F5F7F4FC8010E94460C42E050E0BE015B
:100B30006F5F7F4FC8010E94460C42E050E0BE014B
:100B40006F5F7F4FC8010E94460C5601F5018081FE
:100B5000882311F1F6015F018191811115C04501D2
:100B60008C189D081814190494F48D8641E050E007
:100B7000BE01635F7F4FC8010E94460CA401B6010D
:100B8000C8010E94460C03C08E3229F7E8CF6501E8
:100B9000FFEFCF1ADF0ADACF1D8641E050E0BE0139
:100BA000635F7F4FC8010E94460CC12CDD24D394A3
:100BB000DA82C98242E050E0BE016F5F7F4FC80118
:100BC0000E94460CDA82C98242E050E0BE016F5FAB
:100BD0007F4FC8010E94460CC8010E94A00D892BBE
:100BE00009F471CF83E0A82EB12CF2E06F0E711CD6
:100BF0000E94F61F1B012C01C8010E94EF1118165C
:100C00001906ACF00E94F61FDC01CB018219930992
:100C1000A409B50989389341A105B10508F0FDC0C3
:100C200062E370E080E090E00E94BC1FE5CFF70136
:100C30002280338044805580B801CE0101960E9405
:100C4000B20B8B819C81AD81BE81281639064A0684
:100C50005B0609F0E5C0C8010E94A20BC59709F028
:100C6000DFC0C8010E94E5110C970CF4DCC04CE019
:100C700050E0BE016F5F7F4FC8010E9403018B816E
:100C80009C819827892798279A8B898BF701468121
:100C9000578129813A814217530711F497FD06C005
:100CA000C8010E946A112CEF3FEFBFC08F70927095
:100CB000892B31F0C8010E946A112BEF3FEFB5C0BC
:100CC000CF80D884DC24CD24DC24C114D10431F4B9
:100CD000C8010E946A112AEF3FEFA7C0812C912C16
:100CE0008D819E819827892798278816990640F537
:100CF00041E050E0BE01635F7F4FC8010E940301E5
:100D00008D85811113C08D858111F2CFC8010E949C
:100D1000D80BC8010E94D80BC8010E94D80BC8018B
:100D20000E94D80BFFEF8F1A9F0ADACF8D859FEFB5
:100D3000980F9D87882339F3C8010E94D80BF6CFFE
:100D4000812C912C41E050E0BE016D5E7F4FC801C7
:100D50000E9403018B89982F907C61F4882371F0A5
:100D60008B899FEF980F9B8B882341F0C8010E94CD
:100D7000D80BF6CFC8010E94D80B1B8A8B89811132
:100D8000E1CF42E050E0BE01615F7F4FC8010E94A9
:100D9000030142E050E0BE01635F7F4FC8010E9443
:100DA0000301C8010E94D80BC8010E94D80BC801DA
:100DB0000E94D80BC8010E94D80B42E050E0BE014F
:100DC0006F5E7F4FC8010E9403018F85988981154E
:100DD000914029F48D859E8581159140D9F1412C52
:100DE000512C89899A899827892798274816590666
:100DF00038F4C8010E94D80BFFEF4F1A5F0AF1CFF9
:100E00002FEF821A920A8C149D0409F09BCFC8011F
:100E10000E946A1126EF3FEF08C02FEF3FEF05C099
:100E20002EEF3FEF02C02DEF3FEF81E0A81AB1088F
:100E300029F02F3FEFEF3E0709F4DACEC8012C8BE3
:100E40003D8B0E94840C2C893D89C90117C08EEF0F
:100E50009FEF14C089899A898115944031F0C801A7
:100E60000E946A1127EF3FEFE0CF44E050E0B3016A
:100E7000C8010E94030121E030E0D7CF65960FB68C
:100E8000F894DEBF0FBECDBFDF91CF911F910F91C0
:100E9000FF90EF90DF90CF90BF90AF909F908F909A
:100EA0007F906F905F904F903F902F900895CF92DA
:100EB000DF92EF92FF920F931F93CF93DF93CDB703
:100EC000DEB7AA970FB6F894DEBF0FBECDBF7C0188
:100ED0006A0108E911E01A8309831B821C821D82C2
:100EE0001E82CE01099669A77AA70E94360E1E8F30
:100EF0000D8F1F8E18A219A21AA280910C05909135
:100F00000D05A0910E05B0910F058B839C83AD83D9
:100F1000BE8318861F82AE01435E5F4F69A57AA526
:100F2000CE0101960E94CD0481309105B1F4D70124
:100F3000ED91FC910484F585E02D1CA30BA38F8D0E
:100F400098A1A9A1BAA18DA39EA3AFA3B8A7A601FA
:100F5000BE016D5D7F4FC7010995AA960FB6F89443
:100F6000DEBF0FBECDBFDF91CF911F910F91FF90DC
:100F7000EF90DF90CF9008952F923F924F925F9223
:100F80006F927F928F929F92AF92BF92DF92EF9279
:100F9000FF920F931F93CF93DF93CDB7DEB7C25469
:100FA000D1090FB6F894DEBF0FBECDBF7C011A0188
:100FB0002B0139010E94F61F4B015C018701095B7F
:100FC0001F4FC8010E94EF1118161906A4F00E94C5
:100FD000F61FDC01CB0188199909AA09BB0928165B
:100FE00039064A065B06F0F062E370E080E090E0CC
:100FF0000E94BC1FE6CF42E250E0BE016F5F7F4F10
:10100000C8010E9403018981823031F4C8010E9425
:10101000A20B8334910541F0D12CC8010E946A11C2
:101020008D2D72C18FEF70C16D817E818F8198850A
:101030000E94502B4B015C01F3016083718382831A
:10104000938346E050E0B701685F7F4FCE014D9635
:101050000E94892C892B99F4F70180819181A281CA
:10106000B38188169906AA06BB0648F0848195814B
:10107000A681B78188159905AA05BB0528F4C80182
:101080000E946A1180E040C189899A89AB89BC8934
:10109000F70186879787A08BB18B8EECA82EB12C99
:1010A000C8010E94D80BF1E0AF1AB108C9F7D12CE2
:1010B000C70182969CAF8BAFF701B696FEAFEDAF3E
:1010C000089621969FAF8EAF219747019AE1890E2E
:1010D000911C74972396FFAFEEAF23971701F6E1AB
:1010E0002F0E311C37018EE1680E711CC8010E9461
:1010F000E511181619060CF090CFC8010E94D80B04
:101100008333910509F4DAC0F4F481309105C1F11B
:101110001CF4892B59F3ECC083309105D9F1069763
:1011200009F0E6C0C8010E94D80B5C0144E050E021
:10113000B301C8010E940301412C512CBB24F4E0EF
:10114000AF1AB10842C08A33910509F489C03CF452
:101150008533910569F0C69709F442C0C9C08B3345
:10116000910509F493C08F3F910509F4BFCFC0C02A
:10117000C8010E94D80BC8010E94D80BD82EB6CF48
:10118000C8010E94D80B44E050E023966EAD7FADBD
:1011900023975AC0C8010E94D80B5C0144E050E07C
:1011A000B101C8010E940301412C512CBB2494E0E1
:1011B000A91AB1084A145B040CF098CFC8010E9428
:1011C000D80BEFEF4E1A5E0AF5CF4A145B040CF011
:1011D0008DCFC8010E94D80B8FEF481A580AF5CF5F
:1011E000C8010E94D80BB82E1FAA18AE19AE1AAEAD
:1011F000B401CE018F960E94FA1E49A95AA96BA983
:101200007CA98FA998ADA9ADBAAD481759076A074F
:101210007B07B9F0B801CE0189960E94B20BB401E8
:10122000CE0183960E94FA1E4DA15EA16FA178A502
:101230008BA59CA5ADA5BEA5481759076A077B07D6
:1012400039F444E050E0B401C8010E9403014ECFDC
:10125000BB2009F44BCFC8010E94D80BBA94F8CF39
:10126000C8010E94D80B44E050E06DAD7EADC801CE
:101270000E940301F70166A177A180A591A50E94B4
:10128000502B66A377A380A791A730CFC8010E94F7
:10129000D80B44E050E021966EAD7FAD2197C80198
:1012A0000E940301F70162A573A584A595A50E947C
:1012B000502B62A773A784A795A718CFC8010E94D7
:1012C000D80B44E050E06BAD7CADC8010E94030137
:1012D000F70162A173A184A195A10E94502B62A382
:1012E00073A384A395A366A777A780AB91ABFECE2B
:1012F000C8010E94D80BB82EBB2009F4F7CEC80154
:101300000E94D80BBA94F8CFCE5BDF4F0FB6F8949B
:10131000DEBF0FBECDBFDF91CF911F910F91FF9028
:10132000EF90DF90BF90AF909F908F907F906F90E5
:101330005F904F903F902F9008957F928F929F9251
:10134000AF92BF92CF92DF92EF92FF920F931F93D3
:10135000CF93DF93CDB7DEB7A6970FB6F894DEBF75
:101360000FBECDBF8C01762E942E852E20E2B22E9C
:10137000CE0101967C01FC012B2D11922A95E9F7F3
:1013800088E991E09AA389A38FEF8BA38CA38DA307
:101390008EA3680187E4C80ED11C43E450E0BE016F
:1013A0006F5D7F4FC6010E94FF11019609F4BFC017
:1013B00081E089838A8386E0A82EAB821C82F801B3
:1013C00064817581868197810E94502B6D837E8315
:1013D0008F83988789869A8680E890E09C878B87A0
:1013E0004CE150E0B701C6010E94460CF7012B2DDD
:1013F00011922A95E9F7480188E0880E911CF401C2
:10140000D70101900D92AA94E1F740E150E0B701B5
:10141000C6010E94460CF7011192BA94E9F796E0D2
:10142000A92EB12C40E250E0B701C6010E94460C43
:10143000F1E0AF1AB108B1F783E6898392E89A83A5
:1014400093E59B838C8385E38D8381E08E837F820C
:101450009DE3988797E099878A8786E0F401DE010B
:101460001B9601900D928A95E1F78CE0898B8A8B0F
:1014700060EA71E0CE0143960E94A62CF8014385F4
:10148000BE01675E7F4FC8010E94EE00F8014485EF
:10149000BE01655E7F4FC8010E94EE00F8014585E0
:1014A000BE01635E7F4FC8010E94EE004EE150E036
:1014B000B701C6010E94460CF3E07F121EC082E312
:1014C000898384E08A83F80196859B8397859C8332
:1014D00090899D8391899E8396E39F838887828DDF
:1014E0008987838D8A87848D8B87858D8C874CE057
:1014F00050E0B701C6010E94460C87E3898386E06D
:101500008A8391E09B8393E09C838D838FE08E831D
:101510008AE38F838BE388878FEF898749E050E0E8
:10152000B701C6010E94460CC6010E94A00DA696F6
:101530000FB6F894DEBF0FBECDBFDF91CF911F91E4
:101540000F91FF90EF90DF90CF90BF90AF909F9062
:101550008F907F900895CF92DF92EF92FF920F933A
:101560001F93CF93DF936C017A018B01C0E0D0E031
:10157000CE15DF0589F0D8016D918D01D601ED9171
:10158000FC910190F081E02DC6010995892B11F4A1
:101590007E0102C02196ECCFC701DF91CF911F9150
:1015A0000F91FF90EF90DF90CF900895CF93DF934E
:1015B000E2EDF0E08491EEEBF0E0D491EAEAF0E0C5
:1015C000C491CC2391F081110E940A1FEC2FF0E00E
:1015D000EE0FFF1FE856FF4FA591B491EC91ED235C
:1015E00081E090E021F480E002C080E090E0DF91B3
:1015F000CF9108950E94842C4F925F926F927F92B8
:10160000EF92FF920F931F93CF93DF93CDB7DEB787
:10161000A1970FB6F894DEBF0FBECDBF7C01FA01D3
:10162000CB0119A2223008F42AE08E010F5D1F4F72
:10163000422E512C612C712CBF01A30192010E94FA
:101640003B2DF901CA01015011096A3014F4605DA3
:1016500001C0695CD8016C93232B242B252B61F7E7
:101660000115110591F0F80101900020E9F731977B
:10167000AF01401B510BD701ED91FC910280F3812A
:10168000E02DB801C701099502C080E090E0A19665
:101690000FB6F894DEBF0FBECDBFDF91CF911F9183
:1016A0000F91FF90EF907F906F905F904F90089513
:1016B0008F929F92AF92BF92CF92DF92EF92FF9262
:1016C0000F931F93CF93DF937C01EB016C0182E0BA
:1016D000C80ED11C4701E5E08E0E911C00E010E021
:1016E000F60141916F0150E060E070E02AE0CE0128
:1016F0000E94FC0A5C01E881F9810190F081E02DF3
:101700006EE2CE0109958A0D9B1D080F191FC814A2
:10171000D90431F7F701458150E060E070E02AE03C
:10172000CE010E94FC0A800F911FDF91CF911F9183
:101730000F91FF90EF90DF90CF90BF90AF909F9070
:101740008F900895DC011C96ED91FC911D973097C8
:1017500031F086819781982789279827089580E01E
:1017600090E00895CF93DF93FC01EB01AC85BD853C
:10177000109791F012969C91129713968C91139753
:101780003C9111962C9148E951E05183408332837A
:1017900023839483858308C088E991E091838083C3
:1017A0001282138214821582CF01DF91CF910895A6
:1017B000CF93DF931F92CDB7DEB7DC01ED91FC91A3
:1017C000008CF18DE02D41E050E0BE016F5F7F4F56
:1017D0000995181619061CF4898190E002C08FEF54
:1017E0009FEF0F90DF91CF910895CF93DF931F92DA
:1017F000CDB7DEB76983DC01ED91FC910280F38106
:10180000E02D41E050E0BE016F5F7F4F09950F90E2
:10181000DF91CF910895CF93DF931F92CDB7DEB7BD
:101820006983DC01ED91FC910280F381E02D41E0C0
:1018300050E0BE016F5F7F4F09950F90DF91CF9110
:101840000895FB0141505109460F571FE417F50752
:1018500078F4208130E0322F22276181260F311D5C
:10186000820F931F8217930708F401963296EECFEA
:10187000E417F50751F4208130E0322F2227820F40
:10188000931F8217930708F401960895CF93DF936F
:10189000EC018A89882369F09A01AB016E857F8506
:1018A0000E946D222E853F85280F391F3F872E8786
:1018B00002C080E090E0DF91CF9108950F931F93D5
:1018C000CF93DF93EC018B018C859D85892B41F4AF
:1018D00060E070E080E090E00E94C7199D878C87EF
:1018E000EC85FD85309751F01027012710271583CF
:1018F00004832E96D287C18781E001C080E0DF910A
:10190000CF911F910F910895CF93DF93DC011C9627
:10191000ED91FC911D973097B1F0EC011582148286
:10192000128611861D861C8689890E945F208889FF
:101930000E945F208A890E945F202E9686E0FE0129
:1019400011928A95E9F7DF91CF9108959F92AF9216
:10195000BF92CF92DF92EF92FF920F931F93CF939C
:10196000DF938C017B016A01CCE7D3E0A12CB12C81
:101970008EE1982E288124FF18C030E02F70929EAF
:10198000F001939EF00D1124E054FC4F2481358129
:10199000F801848195812817390739F4A601B70128
:1019A000CE010E943B04A80EB91E6196F3E0C03C34
:1019B000DF0701F7C501DF91CF911F910F91FF90D4
:1019C000EF90DF90CF90BF90AF909F900895CF920F
:1019D000DF92EF92FF920F931F93CF93DF93C0910B
:1019E00064038C2F8270C1FF0FC02091620330E02E
:1019F0004CE354E060E070E0809165030E946D224A
:101A0000CD7FC093640319C020913804309139040C
:101A10002115310519F0C9010E94C9218093650380
:101A2000882309F468C020913804309139044CE3CC
:101A300054E060E070E00E946D220091650385E053
:101A4000089FF0011124EC54FE4FC081D1812197F1
:101A5000E280F380EC0EFD1ECE010E945A21182F69
:101A6000882321F060E0CE010E944221BE0184E083
:101A70000E94C420B70186E00E94C42040E86FE1C4
:101A800080E80E947F2040E86FE180EA0E947F208A
:101A90004AE06CE180EA0E947F2048E06FE180E844
:101AA0000E947F200E94F61F6B017C018CE10E9446
:101AB00015218A7099F40E94F61FAB01BC014C19E4
:101AC0005D096E097F09493E53406105710570F358
:101AD00048E06FE180EA0E947F20E8CF112321F0E7
:101AE000612FCE010E944221802F0E945F20109220
:101AF000650381E001C080E0DF91CF911F910F91DC
:101B0000FF90EF90DF90CF900895CF93DF93EC019B
:101B10000E94582320913804309139049091640335
:101B20002A32310521F4109265039D7F03C01D8286
:101B30001C82926090936403DF91CF910C94E70C28
:101B4000CF93DF93EC018C859D85892B19F480E080
:101B500090E024C0EA89EE23D1F381E08B8B8E855F
:101B60009F8525E0E29FF0011124EC54FE4F938302
:101B700082838C859D85909367038093660385E0BF
:101B80000E94DE128091380490913904892BF9F279
:101B9000CE010E960E94850D81E090E0DF91CF91FD
:101BA0000895FF920F931F93CF93DF93E091660305
:101BB000F0916703C185D285209709F451C08091C7
:101BC0006C0381FF31C0FA80F1102EC080915E0459
:101BD00090915F0497838683809156049091570477
:101BE00091838083809158049091590493838283D8
:101BF0008091620490916304982789279827089719
:101C000019F00E94C921F82EFA82FF2069F08F2D69
:101C10000E94EF228C012AE230E04091630360E0F1
:101C200070E08F2D0E94212380916C0383FF18C0E8
:101C30008D818823A9F08C81809365038AE280934B
:101C40006203688179816A52710980913A049091A6
:101C50003B04DF91CF911F910F91FF900C94CA121A
:101C6000DF91CF911F910F91FF900895FC01138296
:101C7000128288EE93E0A0E0B0E084839583A6838F
:101C8000B78380E191E091838083158614863E9628
:101C900086E0DF011D928A95E9F70895CF92DF92E1
:101CA000EF92FF920F931F93CF93DF93CDB7DEB7E1
:101CB000AA970FB6F894DEBF0FBECDBF7C016A01B4
:101CC00008E911E01A8309831B821C821D821E828F
:101CD000CE01099669A77AA70E94360E1E8F0D8F36
:101CE0001F8E18A219A21AA280910C0590910D05C1
:101CF000A0910E05B0910F058DA39EA3AFA3B8A729
:101D00008B839C83AD83BE8318861F82AE01435EA6
:101D10005F4F69A57AA5CE0101960E94CD0481305E
:101D20009105B1F4D701ED91FC910088F189E02D86
:101D30001CA30BA38F8D98A1A9A1BAA18DA39EA3CB
:101D4000AFA3B8A7A601BE016D5D7F4FC70109957E
:101D5000AA960FB6F894DEBF0FBECDBFDF91CF912C
:101D60001F910F91FF90EF90DF90CF900895EF9229
:101D7000FF920F931F93CF93DF93C82FE0904D04F2
:101D8000F12C84E1E81AF10820914C0430E0322F64
:101D90002227E20EF31E48E050E066E574E0C7013A
:101DA0008C0F911D0E94210CC13131F0C0916A0449
:101DB000C695C695CC7301C0C8E0D0E0AE016EE513
:101DC00074E00E94210C8C01CE15DF0508F04CC098
:101DD000A7014C1B5D0BBE016E5D7F4F80916503BB
:101DE0000E94B422EC01219760E08AE00E94331F38
:101DF0008AE38EBD0DB407FEFDCFA80160E070E060
:101E00006C177D07C8F41EBC0DB407FEFDCF2EB5C0
:101E100030E0322F22271EBC0DB407FEFDCF8EB559
:101E2000280F311D420F531F4217530710F44F5F05
:101E30005F4F6E5F7F4FE4CF8A016C177D0781F49F
:101E40001EBC0DB407FEFDCF8EB590E0982F8827FD
:101E50008A01080F191F0817190710F40F5F1F4F89
:101E600061E08AE00E94331F0115110519F0902FDF
:101E7000812F02C08FEF9FEFDF91CF911F910F91C4
:101E8000FF90EF90089544E150E06AE474E080E050
:101E900090E00E94210C009721F09827892798272D
:101EA00008958FEF9FEF0895CF92DF92EF92FF9208
:101EB0000F931F93CF93DF938091BD02882309F482
:101EC00000C2D0916303D11160C089E30E94152143
:101ED0009091BD02992309F456C0882309F453C098
:101EE0006091BE027091BF028B010A5F1F4F011506
:101EF00028E0120710F00F5F174080E00E94C42016
:101F000060E08AE30E94F32090E09093BF02809308
:101F1000BE0260E08AE30E94F3202091BE0230916D
:101F2000BF02382B3093BF022093BE0260E08AE3E9
:101F30000E94F320C82F60E08AE30E94F320F82E6D
:101F400060E08AE30E94F320E82E40E46EE180E83E
:101F50000E947F20E7FE15C08091BE029091BF02D3
:101F60008115984070F41093C1020093C0028C2F29
:101F700090E09F2904979093C3028093C202DFEF01
:101F800002C00E940823D0936303C0916303CC2353
:101F900009F41AC181E0809364038C2F0E94EF2220
:101FA0009093390480933804892B09F405C142E6E3
:101FB00050E06CE374E08C2F0E94E224009148040E
:101FC000109149040830110509F042C0C09365031F
:101FD00080913804909139040E979093390480933E
:101FE00038042091B0013091B10180915604909154
:101FF0005704822793272091A8013091A9018223B9
:102000009323892BC1F42091B2013091B3018091C7
:10201000580490915904822793272091AA01309166
:10202000AB0182239323892B31F462E474E086E5CB
:1020300094E00E944C2481E00E94DE1280913804DA
:1020400090913904892B09F4B7C00E945823B2C07B
:10205000083046E0140709F0AFC080913804909131
:10206000390410923904109238048A9708F49CC0FD
:102070008091500490915104811551E0950729F009
:102080008115924009F474C08FC020916204309190
:1020900063048091B0019091B1012817390709F0CC
:1020A00083C020916404309165048091B2019091C5
:1020B000B3012817390709F077C062E574E088E5B5
:1020C00094E00E944C2480E092E09093510480932D
:1020D000500486E0E2E5F4E0ACE5B4E001900D9256
:1020E0008A95E1F786E0E5E5F3E0A2E5B4E001904A
:1020F0000D928A95E1F786E0E5E5F3E0A2E4B4E02D
:1021000001900D928A95E1F786E0ECE5F4E0ACE30E
:10211000B4E001900D928A95E1F780915804909176
:102120005904909363048093620480915A049091BF
:102130005B0490936504809364048091B001909156
:10214000B10190935904809358048091B201909109
:10215000B30190935B0480935A0410934904009355
:1021600048048AE290E090933904809338041CC0BC
:1021700020916204309163048091B0019091B1018B
:102180002817390789F420916404309165048091FF
:10219000B2019091B3012817390731F462E574E078
:1021A00088E594E00E944C24809138049091390491
:1021B000892B11F00E94E70C8091640380FF04C01A
:1021C0000E940823109263030E94F61F6B017C019A
:1021D00080915B0390915C03A0915D03B0915E03DD
:1021E000A7019601281B390B4A0B5B0BDA01C901C9
:1021F00080959095A095B0958827B7FD83959927F0
:10220000AA27BB27C82F00EC13E010936E0300939E
:102210006D03CC2311F082E017C00115110519F1EF
:10222000D8015C96ED91FC915D973097D1F0858552
:102230009685A785B089A7019601281B390B4A0B03
:102240005B0B57FD10C083E00E94DE1280913804C2
:1022500090913904892B39F00E9458230E94E70C91
:1022600002C0F801E4CF025E1F4F34E008331307C9
:1022700061F6CC2331F1D701C60186509F4FAF4F95
:10228000BF4F80935B0390935C03A0935D03B09377
:102290005E03C5ECD2E0D0936703C093660385E08C
:1022A0000E94DE128091380490913904892B21F02C
:1022B00089859A850E94850D2B9642E0C13FD407FF
:1022C00051F7DF91CF911F910F91FF90EF90DF9029
:1022D000CF900895CF93DF93EC010E94540F89892A
:1022E0000E945F20198ADF91CF9108950F931F9369
:1022F000CF93DF931F92CDB7DEB78C010E94540FAE
:10230000F8018189882361F041E050E0BE016F5FF0
:102310007F4F0E94E224019719F4898190E002C066
:102320008FEF9FEF0F90DF91CF911F910F91089545
:10233000DF92EF92FF920F931F93CF93DF9300D022
:1023400000D0CDB7DEB77C014B835C8369837A8391
:102350000E94540FF70181894B815C8169817A81E8
:10236000882329F10E94E2248C01F701D1888D2D68
:102370000E94EF220817190731F48D2D0E945F206B
:10238000F701118A12C085E0D89EF0011124EC54A7
:10239000FE4F80819181800F911F91838083828184
:1023A0009381801B910B93838283C80102C080E0DC
:1023B00090E00F900F900F900F90DF91CF911F91B1
:1023C0000F91FF90EF90DF900895CF93DF93EC0192
:1023D0000E94540F8989DF91CF910C94EF22CF9303
:1023E000DF93EC010E94540F898981110E945F20C4
:1023F0008889898B188ADF91CF910C94EF22CF9234
:10240000DF92EF92FF920F931F93CF93DF9300D051
:1024100000D0CDB7DEB78C016B017A010E94540F5A
:10242000F60182819381A481B581892B8A2B8B2B24
:1024300041F1E114F10429F1828190E0982F88277D
:102440002381822B9827892798279A83898324813F
:1024500030E0322F22274581242B322723273227B1
:102460003C832B83D8011C96ED91FC911D977E2D0A
:102470006F2D309729F1778366839183808333832F
:102480002283D8011C968D919C911D97892BA9F0D0
:1024900052968C91811111C086E096E00E94C9216C
:1024A000F801828B2AE230E03787268721E090E02E
:1024B000811101C020E0822F15C080E090E012C0A1
:1024C000CE0101960E94C719D8011D969C938E9348
:1024D0001C97009791F39801225F3F4FFC013287D0
:1024E0002187CFCF0F900F900F900F90DF91CF915A
:1024F0001F910F91FF90EF90DF90CF900895FC0116
:102500002481358180E0843099F0E82FF0E091E07B
:10251000980FEE0FFF1FED50FD4F40815181452B6D
:1025200029F48093FB023183208304C0892FEBCFF1
:102530008093FB020C94540F0F931F93CF93DF9360
:10254000EC018C010B5F1F4F88810E945F20199264
:10255000C017D107C9F7DF91CF911F910F9108954F
:102560000F931F93CF93DF93EC01DC018D918D01CD
:102570000E945F20FE01CE010496D8012D918D01AD
:102580002193E817F907C9F71C82DF91CF911F91BA
:102590000F9108959C01AB0170937B0360937A03C4
:1025A0001616170654F48091780390917903281732
:1025B000390719F0B9010C94962C0895EF92FF9207
:1025C0001F93CF93DF93C0916D03D0916E0384303E
:1025D00009F4CDC122E734E030933B0420933A0460
:1025E0003093790320937803833059F4898D8F7069
:1025F000833009F0C0C688899989892B09F0BBC648
:102600007EC0823009F07FC080916B038F5F809322
:102610006B03811113C080916A038F5F80936A03FB
:1026200081110CC0809169038F5F809369038111D0
:1026300005C0809168038F5F80936803109239040E
:102640001092380410927B0310927A03898D982F90
:102650009D7F953041F48A8D8F5F8A8F883709F08E
:102660008AC6198E88C6882309F485C628893989BF
:10267000232B09F440C09A8D2FEF290F2A8F911137
:102680007AC69B8D983031F02FEF280F223048F416
:10269000953039F4198E80E880936C030E94FF0214
:1026A00023C5953038F423E0092E01C0220F0A9487
:1026B000EAF701C020E32A8F9F5F9B8F8F708330E2
:1026C000A1F048F4813009F43BC3823009F053C6CD
:1026D00010926B0438C3863009F4A2C4883009F420
:1026E0009FC4843009F047C69BC484E080936C0388
:1026F0000E94FF022BC58F70833009F03CC688E032
:1027000080936C03E6C4853019F5E0916603F0917F
:10271000670384819581892B09F42DC610926E037D
:1027200010926D0386E694E090933B0480933A0404
:10273000909379038093780310927B0310927A032D
:10274000109239041092380488E080936C030DC114
:1027500080914A04853409F00EC6C0914C04D0E043
:10276000DC2FCC2780914D04C80FD11D80913804F7
:10277000909139048C179D0708F4FDC5D093390456
:10278000C0933804809150048F7309F0F4C5109100
:1027900051041111F0C5E090B001F090B101E114C5
:1027A000F10431F48091B2019091B301892B21F1B0
:1027B0002091530480915A0490915B04213161F47B
:1027C0008F3F2FEF920741F420915C0430915D041C
:1027D0002F3F3F4F09F452C08E159F0509F0CBC51E
:1027E00020915C0430915D048091B2019091B3011D
:1027F0002817390709F0BFC50E94430F019609F059
:10280000BAC580915304863009F415C18131B1F104
:10281000813009F0B0C580915E04883009F0ABC505
:1028200010925E048091600490916104873F7FEF75
:10283000970710F0099601C0089690936104809361
:102840006004809156049091570490935B048093A8
:102850005A04809158049091590490935D04809398
:102860005C04F0925704E09256048091B20190917A
:10287000B301909359048093580481C56C97D09309
:102880003904C093380486E694E090933B04809327
:102890003A048091640490916504892B99F4209105
:1028A00060043091610440915E0450915F04609136
:1028B000560470915704A0915804B0915904E5EC66
:1028C000F2E00CC081E10E94B70E019609F053C5F9
:1028D000E6CF84819581009731F43B9682E0E13F19
:1028E000F807B8F324C028173907B9F7868197810C
:1028F000009719F04817590781F780819181009757
:1029000029F4C281D381CD2B49F416C08F3F1FEF2C
:10291000910721F4C281D381219671F0681779075C
:10292000E1F682819381A817B907B9F605C0F09343
:102930006703E09366031FC5F0936703E0936603A4
:1029400010926E0310926D0382E080936C0386E612
:1029500094E090933B0480933A049093790380939E
:10296000780310927B0310927A030E94D10D80911C
:102970007A0390917B03009709F4FDC49C01245EC7
:102980003F4F309339042093380430934C04209304
:102990004D04E0916603F091670320852093520473
:1029A00021E120935304089698278927982790932C
:1029B000630480936204109265041092640484811D
:1029C000958190935F0480935E04868197819093B4
:1029D0006104809360048091B0019091B101909363
:1029E0005704809356048091B2019091B301909363
:1029F0005904809358048081918190935B04809363
:102A00005A048281938190935D0480935C0482E7F1
:102A100094E090933B0480933A0481E10E94B70EC6
:102A200080959095009711F48FEF9FEF9093650438
:102A3000809364047DC486E00E94B70E019609F07D
:102A40009AC4209160043091610480915E04909159
:102A50005F046091560470915704E0915804F0911E
:102A60005904C0ECD3E0498D4423A9F0AC81BD8169
:102A70002A173B0781F4AE81BF818A179B0759F45F
:102A8000A881B9816A177B0731F4AA81BB81EA1753
:102A9000FB0709F46FC16E9644E0C833D40719F7F9
:102AA00080916B048F738230E1F43093770320932D
:102AB000760380E0843099F0E82FF0E0EE0FFF1FFE
:102AC000ED50FD4F408151818F5F2417350791F7FD
:102AD0001092FB0280E0C0E0D0E09EE17CC08093D9
:102AE000FB0280916B0482FD46C484E180936B04F9
:102AF00088E290E0909339048093380480E58093D5
:102B00006A04309165048091690480936504209182
:102B10006404809168048093640420936804909115
:102B200063048091670480936304909367048091A9
:102B300062048093FB024091660440936204809398
:102B400066043F5F3093690431110DC02F5F2093FD
:102B50006804211108C09F5F90936704911103C01E
:102B60008F5F8093660480915E0490915F049093E0
:102B70007703809376032091600430916104309351
:102B80005F0420935E0490936104809360048091BD
:102B900056049091570490935B0480935A0480915B
:102BA00058049091590490935D0480935C04809143
:102BB000B0019091B1019093570480935604809195
:102BC000B2019091B301909359048093580494C337
:102BD000473099F08F5F8430F1F0282F30E0929FDA
:102BE000F001939FF00D1124E054FC4F418D4111F1
:102BF000EFCF8093FB02EF0110C0209721F0528DA0
:102C00004A8D451738F7929FE001939FD00D11240C
:102C1000C054DC4FDFCF8093FB02209709F4ABC395
:102C2000D0936E03C0936D0383E08A8F888F1E8AD2
:102C300084E08F8B1B8E80916004909161049D8352
:102C40008C8380915E0490915F049F838E8380913A
:102C500056049091570499838883809158049091E9
:102C600059049B838A8381E0898F809168038C87D4
:102C7000809169038D8780916A038E8780916B03B1
:102C80008F8781E090E0998B888B809165048B879A
:102C9000809164048A8780916304898780916204AB
:102CA000888781E090E00E94B62A80916A04982F7C
:102CB000907F913508F444C082958F7090E005971D
:102CC000880F991F880F991F20917503E12FF0E05D
:102CD000E817F9078CF5E45CFB4F26A9211105C024
:102CE0001093FB02109275032BC0213011F41F5F6B
:102CF000EDCF2230E1F437A93430C9F41093FB0250
:102D00002093750380AD90E0982F882721AD822B0A
:102D10009093770380937603813062E0960710F0FA
:102D200080E092E09B8B8A8B9D8B8C8B09C037A9AE
:102D3000332311F0130FCACF1093FB0220937503B6
:102D400080E180936B0480916B04826080936B04BC
:102D500082E08093720494E09093730480937404EF
:102D6000109275048CE290E09093390480933804BB
:102D700080E670C2D0936E03C0936D0310926C0313
:102D800030916B04132F147032FF03C0198E80E250
:102D90000AC220916A0422952F70220F220F2093DD
:102DA000FB0280913804909139044497821B910969
:102DB00090933904809338044F70423021F4232FCC
:102DC0002F732231C9F0892B19F4832F8370A1F05E
:102DD000909162048885981333C290916304898529
:102DE00098132EC2909164048A85981329C29091F9
:102DF00065048B85981324C234FF49C0688979899A
:102E00006115710509F443C0CE010C960E94802A19
:102E10003091660480917103381339C020916704A2
:102E200080917203281333C09091680480917303DA
:102E300098132DC08091690440917403841327C0B6
:102E40003C872D879E878F878B8D811119C09E8926
:102E5000888D2A8D821B292F269526952695821BE3
:102E6000980F9E8B87FD81952F89322F3695369549
:102E7000231B820F8F8B969596959695890F888F39
:102E800081E080936C03888D8A8F198A188A298D36
:102E9000E22FEF708E2F90E0FC013197E830F105C2
:102EA00008F069C2EC5CFF4F0C944A2B80916C03D4
:102EB00080FF61C283E0898F80E480936C03198A6C
:102EC000188A8091380490913904009709F4FDC064
:102ED00022E420936C030E94B62AF7C080916C0311
:102EE00080FF6DC080916B048F73823109F067C0E1
:102EF00080916A04982F907F913508F444C08295A0
:102F00008F7090E00597880F991F880F991F209167
:102F10007503E12FF0E0E817F9078CF5E45CFB4F4F
:102F200026A9211105C01093FB02109275032BC036
:102F3000213011F41F5FEDCF2230E1F437A9343096
:102F4000C9F41093FB022093750380AD90E0982F95
:102F5000882721AD822B909377038093760381306D
:102F600072E0970710F080E092E09B8B8A8B9D8B3C
:102F70008C8B09C037A9332311F0130FCACF1093DC
:102F8000FB022093750383E0898F80916204888718
:102F9000809163048987809164048A8780916504A5
:102FA0008B8781E090E00E94B62A82E480936C03D4
:102FB000198A188A109239041092380486C080E267
:102FC00080936C030E94FF02198E8BCD80916B045D
:102FD00080FF28C024FD26C088899989892B09F0A3
:102FE000CAC1809138049091390401960E94B62A92
:102FF00080916C03982F906190936C03209138041A
:1030000030913904232B19F0826180936C030E9464
:10301000FF0281E090E0998B888B88E0898F1B8E7E
:1030200081E10FC185FF1DC08091700490E0982F51
:10303000882730917104832B40913A0450913B04CE
:10304000480F591F50933B0440933A044091380471
:1030500050913904BA01681B790B7093390460935D
:10306000380440913804509139044115510551F00C
:1030700024FD08C090916C03926090936C03CA0188
:103080000E94B62A80916C0490E0982F88272091A6
:103090006D04820F911D90937703809376032C89A2
:1030A0003D892817390710F0892B21F430937703D5
:1030B0002093760380917603909177039B8B8A8B84
:1030C00080916C03837009F456C110927B031092B7
:1030D0007A030E94FF0280916C0385FF07C0109263
:1030E0007B0310927A03198E84E1ABC084FF0AC07F
:1030F00010927B0310927A0381E090E0998B888B89
:1031000084E08CCF20917A0330917B032115310527
:10311000E1F080FF02C0198A188A8889998900978E
:1031200081F48A899B898217930720F490937B030B
:1031300080937A0380917A0390917B03998B888B9B
:1031400004C090937B0380937A031B8E8091780355
:103150009091790390933B0480933A0480917A0391
:1031600090917B03892B59F088899989009739F0D0
:103170008896909339048093380488E10BC080913D
:103180006C0381FFF8C088E290E09093390480934B
:10319000380480E180936B045CC080916C0380FFF5
:1031A000EAC0198E80E180936C030E94FF02E3C0A5
:1031B0008091380490913904009711F00E94B62A4A
:1031C00090916B0480916C0390FF0BC080FF06C050
:1031D00087E0898F1A8E198A188A19C086E0898F2C
:1031E00016C080FF1EC085E0898F198A188AC3C067
:1031F0008091380490913904009711F00E94B62A0A
:1032000080916B0480FF0DC087E0898F1A8E81E06A
:1032100090E00E94B62A80E180936C030E94FF0236
:103220000FC08091380490913904892B49F4A3C0D0
:1032300080916C0380FF9FC087E0898F1A8E9BC0AE
:1032400080E180936B0488E290E09093390480934E
:10325000380480E580936A048885809366048985B4
:10326000809367048A85809368048B8580936904C2
:103270008C85809362048D85809363048E85809312
:1032800064048F858093650486E0809353048C8169
:103290009D8190935F0480935E048E819F819093C3
:1032A0006104809360048091B0019091B10190938A
:1032B0005704809356048091B2019091B30190938A
:1032C0005904809358048881998190935B0480937A
:1032D0005A048A819B8190935D0480935C04898D5C
:1032E00084FF05C010926D0410926C0405C082E04A
:1032F00080936C0410926D0480E48093520480915A
:1033000038049091390490934C0480934D041092AA
:1033100071041092700410926F0410926E0486E093
:103320000E94B70E8095909590936F0480936E04E1
:1033300085E480934A0410924B0410925104109239
:10334000500480916F0390917003019690937003E5
:1033500080936F0390934E0480934F041092550412
:10336000109254040E94430F8095909590935504B9
:103370008093540404C010923904109238041092BF
:103380006C03DF91CF911F91FF90EF9008950F9301
:103390001F93CF93DF93DC012091F1023091F20271
:1033A0002F5F3F4F21158DE7380710F020E030E107
:1033B000522F432FE5ECF2E080E0843041F0C481ED
:1033C000D5818F5F3B96C417D507B9F7E9CF309306
:1033D000F2022093F10290E08BE09430D1F0292F9B
:1033E00030E041E0490F829FF001839FF00D1124EE
:1033F000EB53FD4FEF01249604811581012B39F425
:103400009093FB02309741F480E090E02EC0942F1F
:10341000E4CF9093FB02F8CF8091F1029091F202F9
:1034200098278927982799838883778366831097BD
:1034300029F410821182128213820BC08D919C910B
:1034400011979183808312968D919C91139793830A
:1034500082838BE0829FD001839FB00D1124AB53F8
:10346000BD4F80E418968C93CF01DF91CF911F91CF
:103470000F9108952F923F924F925F926F927F9299
:103480008F929F92AF92BF92CF92DF92EF92FF9274
:103490000F931F93CF93DF93CDB7DEB760970FB62F
:1034A000F894DEBF0FBECDBF6DB67EB60E94540F3E
:1034B0004091300550913105ECE7F3E09EE18181C8
:1034C000882361F1808184FF22C0282F30E02F7093
:1034D000929FD001939FB00D1124A054BC4F14961D
:1034E0002D913C9115972417350789F41C821B8276
:1034F00088EE93E0A0E0B0E08D839E83AF83B88731
:1035000086E691E09A838983FE87ED871CC086FF5B
:1035100005C0268137812417350741F3719623E0D2
:10352000E03CF20761F61C821B8288EE93E0A0E08B
:10353000B0E08D839E83AF83B88786E691E09A835F
:1035400089831E861D86CE0101960E94170288235C
:1035500009F4F2C381E080933205CE0101960E9406
:10356000D200882309F474C323E335E0388B2F8716
:103570008901CE0101960E940A01892B59F0CE01E2
:1035800001960E94A400D8018D938D01B5E00A3305
:103590001B0779F780913805815080931C05909125
:1035A00035059111C9C3909136059111C5C3893C68
:1035B00008F0C2C390E00E94572B90931B058093A4
:1035C0001A0500E010E0CE0101960E940A01892B45
:1035D000A1F0E0901A05F0901B05E00EF11ECE015F
:1035E00001960E94A400F70180830F5F1F4F809116
:1035F0001C0590E00817190731F7C0901A05D09004
:103600001B05D6018C9111960C91119710E0102F8B
:10361000002712969C911297092B1396EC90139702
:10362000F12CFE2CEE2414969C91E92A482F50E0B0
:10363000FA013197E031F10508F0B5C2E45CFF4FC3
:103640000C944A2B0F5B1346B80186E195E00E946B
:103650004C20009709F432C3FC01F382E282C801D6
:103660000E9451258E159F0511F064E028C382E069
:1036700054C0C70101978D37910510F063E00AC06F
:103680000F5B1346B80186E195E00E944C20892B20
:1036900019F462E083E088C2C6010E94EC2BC701E6
:1036A0000196D82EDD0CD0921C058D2D90E00E9445
:1036B000572B90931B0580931A05009711F464E033
:1036C000E9CF23E0DC012C93DA94DA941196DC92B2
:1036D00063E0862E912CC12CD12CC8018C0D9D1D30
:1036E0000E945125BFEFCB1ADB0A9601220F331F30
:1036F000E0911A05F0911B05E20FF31F9083E09112
:103700001A05F0911B05E80DF91D8083E2E08E0E8D
:10371000911CCE14DF0409F783E080931D0546C297
:10372000D60115968C919701215031092B3731051F
:1037300078F490E09701220F331F8217930741F42A
:10374000412C512C4801BFEB8B1AB3E69B0A08C0F1
:1037500063E023C0EFEF4E1A5E0A4E145F0459F087
:10376000B401640D751D86E195E00E944C20892B03
:1037700089F762E012C0C6010E94EC2B85E08093BD
:103780001C0585E090E00E94572BFC0190931B05DF
:1037900080931A05892B19F464E080E105C280E169
:1037A0008083118302831382E482F7E0CF0ED11C61
:1037B000412C512CF6013197008110E0102F002789
:1037C000D6018C91082BB401640D751D86E195E03E
:1037D0000E944C20009719F0FC0113830283FFEF35
:1037E0004F1A5F0A22E0C20ED11C4E145F0411F77B
:1037F00093CFC7010197803D974010F063E02BC045
:10380000B8016F5F7F4F86E195E00E944C20892BC5
:1038100011F462E020C0C6010E94EC2BC70123E036
:10382000969587952A95E1F7970127703327232BE3
:1038300011F48E5F01C08D5F80931C05D0901C0534
:103840008D2D90E00E94572B90931B0580931A05B5
:10385000009719F464E081E0A7C121E0DC012C931A
:10386000DA94DA941196DC921701200E311E2801A9
:10387000F12C812C912C540183949201201B310B4B
:103880006901A3E0D694C794AA95E1F7BFEF4B1A5C
:103890005B0AC2010E94512540911A0550911B05F7
:1038A00096012E5F3F4F81159F4F09F00AC2FA0122
:1038B000E20FF31F2081D501C4010F2C04C0880F33
:1038C000991FAA1FBB1F0A94D2F7822B0AC2C701F5
:1038D0000197803D974010F063E02AC00F5E184DBD
:1038E000B80186E195E00E944C20892B09F491CF24
:1038F000C6010E94EC2BC701F3E096958795FA95D7
:10390000E1F7970127703327232B11F48E5F01C055
:103910008D5F80931C05D0901C058D2D90E00E943A
:10392000572B90931B0580931A05009719F464E0B8
:1039300082E03AC122E0DC012C93DA94DA94119609
:10394000DC92812C912CD12C212C312C210123941F
:10395000C801880D991D0E94512540911A0550916A
:103960001B05940173E0369527957A95E1F72E5F54
:103970003F4F81159F4F09F4BFC1FA01E20FF31FBA
:10398000D201C1010D2C04C0880F991FAA1FBB1FB3
:103990000A94D2F7809590818923BDC1C701019710
:1039A0008D37910510F063E01EC00F5C1A48B80116
:1039B00086E195E00E944C20892B09F42ACFC601AC
:1039C0000E94EC2BC7010196D82EDD0CD0921C056D
:1039D0008D2D90E00E94572B90931B0580931A0524
:1039E000009719F464E084E0DFC024E0DC012C934C
:1039F000DA94DA941196DC92C12CD12C63E0862EF5
:103A0000912CC8018C0D9D1D0E945125BFEFCB1A32
:103A1000DB0A9601220F331FE0911A05F0911B0576
:103A2000E20FF31F9083E0911A05F0911B05E80D5A
:103A3000F91D8083E2E08E0E911CCE14DF0409F79D
:103A40006BCEE114FFEFFF0629F0E114F10411F051
:103A500063E070C1DD24D394EF2821F4D12CE12C54
:103A6000F12C03C0E12CFF24FA940F5F1F4FB80123
:103A700086E195E00E944C20009709F45AC1DC01D0
:103A80001396FC92EE921297C8010E94512521E0F4
:103A900081159F4F09F020E02D1509F4E8CD64E071
:103AA00049C1F6012581C70133E0969587953A957E
:103AB000E1F7A70147705527452B09F00196A701AB
:103AC00041505109403B574058F430E0281739071E
:103AD00039F4412C512C48012FEF821A920A08C068
:103AE00063E023C03FEF431A530A4E145F0459F0BA
:103AF000B401640D751D86E195E00E944C20892B70
:103B000089F762E012C0C6010E94EC2B85E0809329
:103B10001C0585E090E00E94572BFC0190931B054B
:103B200080931A05892B19F464E08FE03DC08FE083
:103B300080831183028353824482400E511E780198
:103B4000312CF701E01BF10B93E0F695E7959A9580
:103B5000E1F7EC0DFD1D868190E0032C02C09595E8
:103B600087950A94E2F780FD03C0812C912C03C055
:103B7000812C99249A946FEFE61AF60AB70186E130
:103B800095E00E944C20009729F0DC0113969C924E
:103B90008E9212973394B8E03B1201C0312CE4149A
:103BA000F50479F6B9CD61E00E94212580911D05CB
:103BB000813009F445C00DB71EB780911C05282F30
:103BC00030E0A9014F5F5F4F509337058F5F8093BF
:103BD00038054A5F5F4FEDB7FEB7E41BF50B0FB634
:103BE000F894FEBF0FBEEDBF6DB77EB76F5F7F4F1E
:103BF000FB01CDB6DEB688E0C80ED11CAF85B88912
:103C00008D91B88BAF878193EC15FD05B9F7809145
:103C10001A0590911B05FC017F01E81AF90AE216CA
:103C2000F3062CF4F190D601FD926D01F5CFCE0193
:103C300001960E94B4040FB6F8941EBF0FBE0DBFCC
:103C400080911A0590911B050E94EC2B10921C0587
:103C50006EE175E0CE0101960E94E400882309F42C
:103C60006BC080913205882321F08EE195E00E949F
:103C70002D028B819C8190932105809320058D815D
:103C80009E81AF81B8858093220590932305A093F0
:103C90002405B093250589859A85AB85BC858093DD
:103CA000260590932705A0932805B09329058D85B7
:103CB0009E8590932B0580932A053EC062E086E0A6
:103CC00073CFFA01E20FF31FD501C4010F2C04C01A
:103CD000880F991FAA1FBB1F0A94D2F78095908165
:103CE00089238083F394F8E0FF1201C0F12C421481
:103CF000530409F0C2CD10CDFA01E20FF31F208169
:103D0000D201C1010D2C04C0880F991FAA1FBB1F2F
:103D10000A94D2F7822B8083D394E8E0DE1201C0AC
:103D2000D12CFFEF8F1A9F0A8E149F0409F010CE3A
:103D3000F3CC62E085E038CF0FB6F8947EBE0FBEBC
:103D40006DBE60960FB6F894DEBF0FBECDBFDF919B
:103D5000CF911F910F91FF90EF90DF90CF90BF9088
:103D6000AF909F908F907F906F905F904F903F901B
:103D70002F900895CF93DF93611103C0C0E0D0E08E
:103D800002C0C0E0DFEFBC016F5E784D86E195E0D8
:103D90000E944C20009729F0FC01D383C28381E06C
:103DA00001C080E0DF91CF9108953FB7F8948091F2
:103DB000AB049091AC04A091AD04B091AE0426B5D3
:103DC000A89B05C02F3F19F00196A11DB11D3FBF53
:103DD000BA2FA92F982F8827820F911DA11DB11DE1
:103DE000BC01CD0142E0660F771F881F991F4A95DD
:103DF000D1F7089528E931E0FC0131832083FB01EC
:103E00004081518162817381FC01428353836483C9
:103E100075830895833081F028F4813099F08230E1
:103E2000A1F008958730A9F08830B9F08430D1F43A
:103E3000809180008F7D03C0809180008F77809378
:103E40008000089584B58F7702C084B58F7D84BDCE
:103E500008958091B0008F7703C08091B0008F7D6E
:103E60008093B00008951F93CF93DF93282F30E005
:103E7000F901E653FF4F8491F901EA54FF4FD491C1
:103E8000F901EE55FF4FC491CC23C9F0162F8111D3
:103E90000E940A1FEC2FF0E0EE0FFF1FE851FF4FCA
:103EA000A591B4918FB7F894111105C09C91ED2F95
:103EB000E095E92302C0EC91ED2BEC938FBFDF91ED
:103EC000CF911F910895CF93DF9390E0FC01EA54C6
:103ED000FF4F2491FC01EE55FF4F8491882361F13F
:103EE00090E0880F991FFC01E252FF4FC591D491D9
:103EF000FC01E851FF4FA591B491611109C09FB732
:103F0000F8948881209582238883EC912E230BC01E
:103F1000623061F49FB7F8943881822F80958323B3
:103F20008883EC912E2B2C939FBF06C08FB7F894FB
:103F3000E8812E2B28838FBFDF91CF9108958E309B
:103F400008F08E5087702091000190E4299F900125
:103F50001124822B80937C0080917A00806480936E
:103F60007A0080917A0086FDFCCF809178002091C4
:103F7000790090E0922B08958F929F92AF92BF921A
:103F8000CF92DF92EF92FF926B017C010E94D51ECF
:103F90004B015C01C114D104E104F104F1F00E9471
:103FA000D51EDC01CB0188199909AA09BB09883EF5
:103FB0009340A105B10570F321E0C21AD108E108D0
:103FC000F10888EE880E83E0981EA11CB11CC11474
:103FD000D104E104F10419F7DDCFFF90EF90DF90F9
:103FE000CF90BF90AF909F908F9008952FB7F89487
:103FF0006091A7047091A8048091A9049091AA04EB
:104000002FBF08951F920F920FB60F9211242F9376
:104010003F938F939F93AF93BF938091A704909109
:10402000A804A091A904B091AA043091A60423E0A9
:10403000230F2D3720F40196A11DB11D05C026E8E0
:10404000230F0296A11DB11D2093A6048093A704FF
:104050009093A804A093A904B093AA048091AB0400
:104060009091AC04A091AD04B091AE040196A11D55
:10407000B11D8093AB049093AC04A093AD04B093B6
:10408000AE04BF91AF919F918F913F912F910F906F
:104090000FBE0F901F901895DC01ED91FC913097A9
:1040A00049F0808191818617970739F00480F58166
:1040B000E02DF5CF80E090E00895CF0108958823AA
:1040C000E9F0A4EBB1E025E014969C9114979813C5
:1040D0000DC095E0899FF0011124EC54FE4F8481BE
:1040E00014968C931382128214820895992331F0CE
:1040F000299FD0011124AC54BE4FE6CF08950F93F1
:104100001F93CF93DF931F92CDB7DEB7182F062FE3
:1041100060E08AE049830E94331F802F8F71812BDA
:104120008EBD49810DB407FEFDCF4EBD0DB407FE17
:10413000FDCF61E08AE00F90DF91CF911F910F9149
:104140000C94331F1F93CF93DF93182F1076C12F3A
:10415000D0E02091010130E0C217D30789F043E09D
:104160006FE180EA0E947F20AE0185E0559547957A
:104170008A95E1F76FE180E80E947F2010930101AA
:10418000DF91CF911F9108951F93CF93DF9300D0BC
:10419000CDB7DEB7182F69837A830E94A2204981A8
:1041A000612F80E40E947F2061E0610F7A81472FB8
:1041B00080E40F900F90DF91CF911F910C947F209E
:1041C0001F93CF93DF931F92CDB7DEB7182F69836C
:1041D0000E94A2204981612F80E40F90DF91CF914E
:1041E0001F910C947F20CF93DF93C82FD62F60E0D0
:1041F0008AE00E94331F8D2F8F71C82BCEBD0DB466
:1042000007FEFDCF1EBC0DB407FEFDCFD7FD08C0D5
:1042100061E08AE00E94331F8EB5DF91CF9108954F
:104220001EBC0DB407FEFDCFF3CFCF93DF931F92DB
:10423000CDB7DEB7682F69830E94A220698180E034
:104240000F90DF91CF910C94F320CF93DF93EB018C
:10425000682F84ED0E94E020BE0186ED0E94C420FC
:10426000CFE0D0E08AEE0E94152180FF08C06AE00E
:1042700070E080E090E00E94BC1F219799F7DF91E9
:10428000CF910895CF93C62FBC0182E00E94C42035
:1042900060E08AE00E94331F8AE78EBD0DB407FEFE
:1042A000FDCFCEBD0DB407FEFDCF61E08AE0CF911A
:1042B0000C94331FBC0180E00E94C42060E08AE0BF
:1042C0000E94331F8AE38EBD0DB407FEFDCF1EBCD6
:1042D0000DB407FEFDCF61E08AE00E94331F8EB56A
:1042E0000895CF92DF92EF92FF920F931F93CF9397
:1042F000DF936C018B014130510579F4CB010E94B1
:104300005A21682FC601DF91CF911F910F91FF9025
:10431000EF90DF90CF900C944221EA01C60FD71F97
:104320007E0181E0E81AF10880E10E94C420B60114
:1043300084E10E94C4200115184038F4E11488E09B
:10434000F80618F07E0188E0F81AB70182E10E94B1
:10435000C42040E16FE180EA0E947F2040E26FE1EB
:1043600080E80E947F206FE180E00E94F32085FFBB
:1043700007C061E070E080E090E00E94BC1FF3CFD6
:10438000DF91CF911F910F91FF90EF90DF90CF9031
:104390000895CF92DF92EF92FF920F931F93CF93E6
:1043A000DF938C016091B4017091B5016150784E3A
:1043B000C12C98E1D92EE4EBF1E080E0C0E0D0E040
:1043C00045E09481992349F0499F900111242C5490
:1043D0003E4FD9012D913C9101C09B01E080F180BD
:1043E0002E193F090280F381E02D2E1B3F0B201771
:1043F000310739F4B5E08B9FE0011124CC54DE4F36
:1044000049C00217130748F42C153D0530F4489FA6
:10441000E0011124CC54DE4F6901911107C02097AF
:10442000C9F5C4EBD1E085E0D82E1EC0499FF0014C
:104430001124EC54FE4F892FC4CFEA80FB802881E1
:104440003981E20EF31ED89EE0011124CC54DE4FD8
:1044500068817981E616F70639F04A815B81C701E8
:104460000E947121F982E8828C818111E6CF20912E
:10447000B4013091B50188819981281B390B8A815B
:104480009B81281B390B2150384E2017310710F41F
:1044900080E01AC091E0E9EBF1E022813381232B27
:1044A00029F035969F5F9533C1F7F2CF4A815B8142
:1044B00028813981240F351F3183208313830283A0
:1044C0008C8184839C83892FDF91CF911F910F91E1
:1044D000FF90EF90DF90CF900895CF92DF92EF9210
:1044E000FF920F931F93CF93DF937B018A016901A2
:1044F00025E0829FC0011124EC01CC54DE4F68817D
:1045000079816E0D7F1D82E00E94C4200A80DB81CC
:10451000C02DCE19DF09CC16DD0608F4E60160E0F7
:104520008AE00E94331F8AE78EBD0DB407FEFDCFDF
:10453000C8018C0F9D1F0817190741F0F801219140
:104540008F012EBD0DB407FEFDCFF5CF61E08AE0EF
:104550000E94331FCE01DF91CF911F910F91FF90E9
:10456000EF90DF90CF900895EF92FF920F931F93FB
:10457000CF93DF938B017A018F3FD1F025E0829FAB
:10458000E0011124CC54DE4F02C0C0ECD2E088819F
:104590009981B801680F791F80E00E94C4208A8148
:1045A0009B81801B910BE816F90690F4C70110C09F
:1045B0008091C0029091C102860F971F811528E05B
:1045C000920718F3BC016F5F7740C0ECD2E0E4CFF4
:1045D000DF91CF911F910F91FF90EF900895882365
:1045E000A1F09091BD02992381F08F3F29F4809131
:1045F000C2029091C302089595E0899FF0011124B1
:10460000EC54FE4F82819381089580E090E00895FC
:104610006091BE027091BF026115710549F0615051
:104620007109611588E0780728F060E070E002C049
:104630006FEF77E060FF02C0615071098CE00C946D
:10464000C4200F931F93DB01E42FA80190E0EF3FFC
:1046500009F165E0E69FF0011124EC54FE4F02C021
:10466000E0ECF2E00190F081E02D2E0F3F1F65E0BD
:10467000689FF001699FF00D1124EC54FE4F80817A
:104680009181B9018A0F9B1F0E9471211F910F9187
:104690000C940823E091C002F091C102E20FF31FD5
:1046A000E11568E0F607E0F29F012F5F3740DFCFAA
:1046B00080915A0490915B048F3F2FEF920759F439
:1046C00020915C0430915D042F3F3F4F21F486E040
:1046D000E0E3F1E05AC02091B0013091B101282708
:1046E00039274091A8015091A90124233523232B78
:1046F00091F460915C0470915D042091B20130915D
:10470000B301262737274091AA015091AB012423FA
:104710003523232B89F08091AC019091AD019093CA
:10472000A3048093A2048091AE019091AF01909375
:10473000A5048093A40408C09093A3048093A204CA
:104740007093A5046093A4042091A2043091A30463
:104750004091A4045091A50480E09BE001C08F5FCC
:10476000883071F1989FF0011124E450FD4F608171
:1047700071812617370799F76281738146175707AA
:1047800071F780935403349686E0ACE3B4E0019073
:104790000D928A95E1F786E0E5E5F3E0A2E4B4E066
:1047A00001900D928A95E1F788E090E0909349049A
:1047B0008093480480913804909139040E9667C024
:1047C0008093540346E050E06FEF70E08CE394E098
:1047D0000E949F2C86E0ECE5F4E0DF01282F1D927B
:1047E0002A95E9F7E5E5F3E0A2E4B4E0982F01901B
:1047F0000D929A95E1F7E5E5F3E0A2E5B4E0982F94
:1048000001900D929A95E1F72091A2043091A304B2
:1048100030936304209362042091A4043091A50492
:1048200030936504209364042091B0013091B1016C
:1048300030935904209358042091B2013091B30170
:1048400030935B0420935A0420E031E0309351040C
:104850002093500430934B0420934A0428E030E026
:1048600030934D0420934C0480934E0484E0809355
:104870004F0488E096E0909349048093480482E7CF
:1048800094E090933B0480933A048AE290E0909302
:104890003904809338040895EF92FF920F931F9389
:1048A000CF93DF939C01FB011092540390E08BE0C7
:1048B000983031F1899F70011124E701C450DD4F18
:1048C0006881798161157105C9F04A815B81411563
:1048D0005105A1F0D9010D911C91119706171707E9
:1048E00069F412966D917C9113976417750731F4F2
:1048F00090935403D701A050BD4F2AC09F5FD8CFDB
:1049000090E08BE0983091F0899FE0011124C45031
:10491000DD4F48815981452B39F44A815B81452B14
:1049200019F4909354030AC09F5FECCF1092A10436
:104930001092A00410925403CCEFD2E0D9014D9113
:104940005D916D917C91DE014D935D936D937D93AF
:1049500086E001900D928A95E1F71A86DF91CF915A
:104960001F910F91FF90EF9008950F931F93CF9396
:10497000DF938C01EB0186E090E00E94572BFC0155
:1049800011830083D383C28315821482809116051C
:1049900090911705892B29F4F0931705E0931605DC
:1049A00008C0A0911805B09119051596FC93EE93D7
:1049B0001497F0931905E0931805DF91CF911F919B
:1049C0000F9108950F931F93CF93DF93EB0160E056
:1049D00070E00E94B4228C0160E08AE00E94331FE4
:1049E0008AE38EBD0DB407FEFDCFCE01800F911F6F
:1049F000C817D90739F01EBC0DB407FEFDCF2EB580
:104A00002993F6CF61E08AE00E94331FC801DF914D
:104A1000CF911F910F910895CF93DF93EB01BC01CC
:104A20006F5C7A4886E195E00E944C20009729F05F
:104A3000FC01D383C28381E001C080E0DF91CF918C
:104A40000895EF92FF921F93CF93DF931F92CDB7FC
:104A5000DEB7182F86E1E82E85E0F82ED7011496F0
:104A60008D919C91159769830E94EC2B82E0F70150
:104A7000868382E090E00E94572BFC01D7011596B7
:104A80009C938E931497105810836981618383E0FF
:104A900017968C930F90DF91CF911F91FF90EF901D
:104AA0000895BC0186E195E00E944C20009721F01A
:104AB000FC0182819381089580E090E00895CF9376
:104AC000DF93CDB7DEB76B970FB6F894DEBF0FBE9E
:104AD000CDBF789484B5826084BD84B5816084BD87
:104AE00085B5826085BD85B5816085BD80916E008C
:104AF000816080936E0010928100809181008260BD
:104B000080938100809181008160809381008091F9
:104B100080008160809380008091B10084608093E8
:104B2000B1008091B00081608093B00080917A00E4
:104B3000846080937A0080917A00826080937A000A
:104B400080917A00816080937A0080917A008068F9
:104B500080937A001092C100109200018FEA94E0D5
:104B600090936103809360030E94F61FDC01CB01E8
:104B700086509F4FAF4FBF4F80935B0390935C0372
:104B8000A0935D03B0935E031092C1021092C00225
:104B90001092C3021092C20289E091E0E4EBF1E0CE
:104BA000DF019C011D9221503040E1F781E098E047
:104BB0009093B5018093B40161E08AE00E94631F85
:104BC00061E08AE00E94331F61E08BE00E94631F76
:104BD00061E08DE00E94631F60E08CE00E94631F33
:104BE00060E08BE00E94331F60E08DE00E94331F85
:104BF00080E58CBD8DB581608DBD4FEF60E08FEF9E
:104C00000E947F2062E070E080E090E00E94BC1F84
:104C100062E370E080E090E00E94BC1F1092BF024F
:104C20001092BE0200E110E06DE180E00E94F320EE
:104C300081110AC00150110939F06AE070E080E08A
:104C400090E00E94BC1FF0CF60E070E088E00E941E
:104C5000C42060E070E08CE00E94C4206FEF77E039
:104C60008AE00E94C42061EB88E30E94E0206FE3A9
:104C700070E388E20E94C42069EF77EF80E30E942E
:104C8000C4206DE070E080EC0E94C42042E362EC3E
:104C900080E80E947F2062E17CE086EC0E94C420D4
:104CA00062E184EC0E94E0206CED75E08AEC0E94E9
:104CB000C42064EB84EE0E94E02068E685EE0E944A
:104CC000E02068EA82EE0E94E0206BE783EE0E941B
:104CD000E0206FE680EE0E94E02067E281EE0E9415
:104CE000E02060E071E080E10E9425218FE10E94D8
:104CF000A22040EC6BE180E80E947F2044E06FE15D
:104D000080E80E947F2066E774E084E10E9425210C
:104D100082E70E9415218093BD028F3F11F410920B
:104D2000BD0284EB8093550388E68093560388EA9E
:104D3000809357038BE7809358038FE68093590342
:104D400087E280935A0380E0E82FF0E0EE0FFF1F28
:104D5000ED50FD4F118210828F5F8430A9F780E003
:104D60009EE1989FF0011124E054FC4F118E8F5F5B
:104D70008430B9F780E094E09093F2028093F102DE
:104D800080E09BE0989FF0011124EB53FD4F1582CA
:104D900014828F5F8430B1F78093FB02109254032A
:104DA0009BE080915403883068F4989FF0011124AF
:104DB000E450FD4F10821182128213828F5F809324
:104DC0005403EFCF0091600310916103D8019296D4
:104DD0001D921D921D921C929597F80116A217A282
:104DE00010A611A69A961D921D921D921C929D9737
:104DF00016AA17AA10AE11AE80E69AEEA0E0B0E0B7
:104E000082AF93AFA4AFB5AF1801FEE32F0E311CF4
:104E100080EA9FE0A0E0B0E0F10180839183A2836B
:104E2000B383F69786E0DF011D928A95E9F73696FF
:104E300084E1DF011D928A95E9F784EBF801808710
:104E400088E6818788EA82878BE783878FE6848775
:104E500087E285874801F6E48F0E911CD4011C92ED
:104E60000E94FB2C2FEC37E040E050E00E94092D1F
:104E7000DC01CB010196A11DB11DF801848395834E
:104E8000A683B78380839183A283B3835801F7E419
:104E9000AF0EB11CC5010E94840C64E470E0C50132
:104EA0000E945E0C882309F49EC10E94F61F2B010C
:104EB0003C011B8E1A8E198E38EEC32E33E0D32E92
:104EC000E12CF12CD4018C91833009F4FDC08111C7
:104ED0001FC0F80184819581A681B7810196A11D2B
:104EE000B11D84839583A683B7830E94F61F64193E
:104EF000750986099709A70196010E943B2DA90112
:104F000061E0C8010E949D0981E0D4018C93BDC07D
:104F10008430F9F4F80184819581A681B7810196E6
:104F2000A11DB11D84839583A683B7830E94F61FBC
:104F30006419750986099709A70196010E943B2DFE
:104F4000A90163E0C8010E949D09E2E0D401EC934D
:104F50009CC0813059F5D1014D915D916D917C914D
:104F60009E012F5F3F4FC8010E94BC07898F82308E
:104F700009F08BC089819A81AB81BC81F80184835F
:104F80009583A683B7830E94F61F64197509860965
:104F90009709A70196010E943B2DA90163E0C80172
:104FA0000E949D09E98DD401EC9375C0823009F00F
:104FB0006CC0D1014D915D916D917C919E012F5FEF
:104FC0003F4FC8010E94BC07898F853009F057C048
:104FD00023E0F4012083F80182A193A1A4A1B5A14B
:104FE000892B8A2B8B2B41F484E893E0A0E0B0E07E
:104FF00082A393A3A4A3B5A3F80186A197A1A0A51A
:10500000B1A5892B8A2B8B2B61F482A193A1A4A13A
:10501000B5A1B695A7959795879586A397A3A0A7C1
:10502000B1A7D8019A964D915D916D917C919D9714
:1050300096968D919D910D90BC91A02D452B462B60
:10504000472B59F4AC01BD01440F551F661F771F54
:10505000F80142A753A764A775A7F80186A797A7E9
:10506000A0ABB1AB82A593A5A4A5B5A582AB93AB2C
:10507000A4ABB5AB21E030E03B8F2A8F0CC0398D5B
:10508000363019F4D4011C9206C0B98DBF3F19F413
:10509000F4011082198E2A8D3B8D2130310509F4DF
:1050A00011CF0E94F61FDC01CB0184199509A609D6
:1050B000B709F80122AD33AD44AD55AD2817390716
:1050C0004A075B0708F0FECEC5010E94840CF80178
:1050D00084819581A681B7810196A11DB11D84832C
:1050E0009583A683B7832A8D3B8D2130310509F046
:1050F0007AC00091600310916103B8016E5E7F4F2A
:10510000CE0143960E94FA1EB8016A5E7F4FCE011F
:105110000D960E94FA1EB801625E7F4FCE0107967F
:105120000E94FA1EB801625F7F4FCE0101960E9475
:10513000FA1E8D8190E0982F88272E81822B982748
:10514000892798272B8130E0322F22274C81242B6E
:105150003227232732273093B1012093B001909357
:10516000B3018093B201898990E0982F88272A891A
:10517000822B9827892798272F8530E0322F2227E6
:105180004889242B3227232732273093AD012093DF
:10519000AC019093AF018093AE018F8990E0982F7E
:1051A0008827288D822B9827892798272D8930E0FA
:1051B000322F22274E89242B322723273227309360
:1051C000A9012093A8019093AB018093AA0189853E
:1051D0009A85AB85BC8580930C0590930D05A093B3
:1051E0000E05B0930F058CE295E00E947F1261E0FE
:1051F00087E00E94631F61E086E00E94631F61E018
:1052000085E00E94631F60E088E00E94631F60E009
:1052100070E082EB96E30E94B52460E070E083EBDF
:1052200096E30E94B52460E070E084EB96E30E9470
:10523000B52460E070E085EB96E30E94B52460E061
:1052400070E08AED94E80E94B52460E070E08BED98
:1052500094E80E94B52460E070E08CED94E80E9430
:10526000B52460E070E08DED94E80E94B52460E024
:1052700070E08EED94E80E94B52460E070E08FED60
:1052800094E80E94B52460E070E080EE94E80E940B
:10529000B52460E070E081EE94E80E94B52460E0FF
:1052A00070E082EE94E80E94B52460E070E083EE46
:1052B00094E80E94B52460E070E084EE94E80E94D7
:1052C000B52460E070E085EE94E80E94B52460E0CB
:1052D00070E086EE94E80E94B52400E010E00E94A1
:1052E0003A1A60E087E00E94331F60E086E00E9487
:1052F000331F60E085E00E94331F0E943A1A0E942B
:10530000D60A61E0892B09F460E081EA9FE00E94FF
:10531000BA1E8EE00E949F1FBC018AEA9FE00E9495
:105320000C2561E087E00E94331F60E086E00E9468
:10533000331F60E085E00E94331F0E943A1A0E94EA
:10534000D60A61E0892B09F460E084EA9FE00E94BC
:10535000BA1E8EE00E949F1FBC018BEA9FE00E9454
:105360000C2560E087E00E94331F61E086E00E9428
:10537000331F60E085E00E94331F0E943A1A8EE0DE
:105380000E949F1FBC018CEA9FE00E940C2561E0F7
:1053900087E00E94331F61E086E00E94331F60E0D7
:1053A00085E00E94331F0E943A1A8EE00E949F1FE0
:1053B000BC0189EA9FE00E940C2560E087E00E9422
:1053C000331F60E086E00E94331F61E085E00E94A9
:1053D000331F0E943A1A0E94D60A61E0892B09F411
:1053E00060E082EA9FE00E94BA1E8EE00E949F1F4A
:1053F000BC0180EB9FE00E940C2561E087E00E94E9
:10540000331F60E086E00E94331F61E085E00E9468
:10541000331F0E943A1A0E94D60A61E0892B09F4D0
:1054200060E083EA9FE00E94BA1E8EE00E949F1F08
:10543000BC018DEA9FE00E940C2560E087E00E949D
:10544000331F61E086E00E94331F61E085E00E9427
:10545000331F0E943A1A8EE00E949F1FBC018FEA00
:105460009FE00E940C2561E087E00E94331F61E00D
:1054700086E00E94331F61E085E00E94331F0E9496
:105480003A1A8EE00E949F1FBC018EEA9FE00E94A4
:105490000C250E943A1A80E10E949F1FBC0181EBFB
:1054A0009FE00E940C250E943A1A8FE00E949F1FE5
:1054B000BC0182EB9FE00E940C2581E10E949F1FAE
:1054C000BC0183EB9FE00E940C250E943A1A82E106
:1054D0000E949F1FBC0184EB9FE00E940C250E944C
:1054E0003A1A83E10E949F1FBC0185EB9FE00E9456
:1054F0000C250115110509F4F2CE0E940000EFCE33
:10550000FC012381260F20937403A72FBB279281D0
:105510009A0F9093730331813093720340814093CB
:105520007103E92FF0E0EA17FB0748F481E0830FED
:1055300080937203811103C04F5F4093710330E089
:1055400077272617370788F49F5F9093730391118D
:105550000CC0809172038F5F80937203811105C02C
:10556000809171038F5F809371030895CF93DF93D0
:10557000C0916D03D0916E03BC01CE0108960E94CC
:10558000802AE1E7F3E080818887818189878281B1
:105590008A8783818B87DF91CF910895CF93DF93A3
:1055A000EAE3F5E0C8E9D1E0D183C0831282138237
:1055B00014821582E0E4F5E0D183C0831282138265
:1055C00014821582E6E4F5E0D183C083128213824F
:1055D00014821582ECE4F5E0D183C0831282138239
:1055E00014821582E2E5F5E0D183C0831282138232
:1055F00014821582EAE0F5E0D183C083128213821F
:105600001482158286EF94E00E94360EE8E5F5E0FC
:10561000D183C0831282138214821582E0E1F5E007
:10562000D183C0831282138214821582EEE5F5E0E5
:10563000D183C0831282138214821582E4E6F5E0DE
:10564000D183C0831282138214821582E6E1F5E0D1
:1056500011821082138212821386128688EE93E0E2
:10566000A0E0B0E084879587A687B78786E691E0BB
:1056700091878087158A148A118E108E86E891E0B2
:10568000978B868B81E096EF938F828F148EDF91BC
:10569000CF910895EE0FFF1F0590F491E02D09942E
:1056A0006927962769277827872778270895CF9332
:1056B000DF938230910510F482E090E0E0916C0578
:1056C000F0916D0520E030E0C0E0D0E0309711F1BE
:1056D0004081518148175907C0F04817590761F4B4
:1056E00082819381209719F09B838A832BC09093AA
:1056F0006D0580936C0526C02115310519F0421700
:10570000530718F49A01BE01DF01EF010280F38113
:10571000E02DDCCF2115310509F1281B390B243090
:10572000310590F412968D919C9113976115710536
:1057300021F0FB019383828304C090936D058093D5
:105740006C05FD01329644C0FD01E20FF31F819309
:105750009193225031092D933C933AC020916A05D0
:1057600030916B05232B41F4209104013091050108
:1057700030936B0520936A0520910201309103015B
:105780002115310541F42DB73EB7409106015091E6
:105790000701241B350BE0916A05F0916B05E217B8
:1057A000F307A0F42E1B3F0B2817390778F0AC0144
:1057B0004E5F5F4F2417350748F04E0F5F1F509321
:1057C0006B0540936A058193919302C0E0E0F0E09D
:1057D000CF01DF91CF9108950F931F93CF93DF9364
:1057E000009709F48CC0FC01329713821282009159
:1057F0006C0510916D050115110581F42081318131
:10580000820F931F20916A0530916B052817390785
:1058100079F5F0936B05E0936A0571C0D80140E01B
:1058200050E0AE17BF0750F412962D913C9113979C
:10583000AD012115310509F1D901F3CF9D01DA013F
:105840003383228360817181860F971F82179307AC
:1058500069F4EC0128813981260F371F2E5F3F4FF5
:10586000318320838A819B8193838283452B29F412
:10587000F0936D05E0936C0542C01396FC93EE9394
:105880001297ED01499159919E01240F351FE2179E
:10589000F30771F480819181840F951F0296119610
:1058A0009C938E938281938113969C938E931297EF
:1058B000E0E0F0E0D80112968D919C91139700974B
:1058C00019F0F8018C01F6CF8D919C9198012E5F13
:1058D0003F4F820F931F20916A0530916B05281767
:1058E000390769F4309729F410926D0510926C0510
:1058F00002C01382128210936B0500936A05DF9138
:10590000CF911F910F91089581E090E0F8940C944D
:105910006C2DFB01DC0104C08D910190801921F4F4
:1059200041505040C8F7881B990B0895FB01DC01DA
:1059300002C001900D9241505040D8F70895DC010B
:1059400001C06D9341505040E0F70895FB01DC0128
:1059500001900D920020E1F708958F929F92AF92EF
:10596000BF92CF92DF92EF92FF92CF93DF93EC0141
:10597000688179818A819B81611571058105910515
:1059800021F464E279ED8BE597E02DE133EF41E01E
:1059900050E00E94092D49015A019B01AC01A7EA80
:1059A000B1E40E94282D6B017C01ACEEB4EFA5019F
:1059B00094010E94362DDC01CB018C0D9D1DAE1D86
:1059C000BF1DB7FF03C00197A109B0488883998321
:1059D000AA83BB83BC01CD019F77DF91CF91FF905C
:1059E000EF90DF90CF90BF90AF909F908F900895F1
:1059F0000E94AD2C089588E091E00E94AD2C08959E
:105A0000609308017093090180930A0190930B0140
:105A10000895052E97FB1EF400940E94202D57FD3B
:105A200007D00E943B2D07FC03D04EF40C94202D90
:105A300050954095309521953F4F4F4F5F4F0895BA
:105A400090958095709561957F4F8F4F9F4F0895EA
:105A50000E945D2DA59F900DB49F900DA49F800D79
:105A6000911D11240895B7FF0C94282D0E94282D14
:105A7000821B930B0895A1E21A2EAA1BBB1BFD01EA
:105A80000DC0AA1FBB1FEE1FFF1FA217B307E4071D
:105A9000F50720F0A21BB30BE40BF50B661F771F75
:105AA000881F991F1A9469F7609570958095909555
:105AB0009B01AC01BD01CF010895A29FB001B39F2E
:105AC000C001A39F700D811D1124911DB29F700D07
:0C5AD000811D1124911D0895F894FFCF52
